{
  "_format": "hh-sol-artifact-1",
  "contractName": "AIOracleAggregator",
  "sourceName": "contracts/AIOracleAggregator.sol",
  "abi": [
    {
      "inputs": [
        {
          "internalType": "address[]",
          "name": "initialOracles",
          "type": "address[]"
        },
        {
          "internalType": "uint256",
          "name": "_minRequiredSubmissions",
          "type": "uint256"
        },
        {
          "internalType": "uint8",
          "name": "_quorumPercent",
          "type": "uint8"
        }
      ],
      "stateMutability": "nonpayable",
      "type": "constructor"
    },
    {
      "anonymous": false,
      "inputs": [
        {
          "indexed": true,
          "internalType": "address",
          "name": "target",
          "type": "address"
        },
        {
          "indexed": true,
          "internalType": "address",
          "name": "oracle",
          "type": "address"
        },
        {
          "indexed": false,
          "internalType": "uint8",
          "name": "score",
          "type": "uint8"
        },
        {
          "indexed": false,
          "internalType": "string",
          "name": "ipfsCid",
          "type": "string"
        }
      ],
      "name": "AssessmentSubmitted",
      "type": "event"
    },
    {
      "anonymous": false,
      "inputs": [
        {
          "indexed": true,
          "internalType": "address",
          "name": "oracle",
          "type": "address"
        }
      ],
      "name": "OracleNodeRegistered",
      "type": "event"
    },
    {
      "anonymous": false,
      "inputs": [
        {
          "indexed": true,
          "internalType": "address",
          "name": "oracle",
          "type": "address"
        }
      ],
      "name": "OracleNodeRemoved",
      "type": "event"
    },
    {
      "anonymous": false,
      "inputs": [
        {
          "indexed": true,
          "internalType": "address",
          "name": "target",
          "type": "address"
        },
        {
          "indexed": false,
          "internalType": "uint8",
          "name": "aggregatedScore",
          "type": "uint8"
        },
        {
          "indexed": false,
          "internalType": "uint8",
          "name": "category",
          "type": "uint8"
        },
        {
          "indexed": false,
          "internalType": "string",
          "name": "ipfsCid",
          "type": "string"
        },
        {
          "indexed": false,
          "internalType": "uint256",
          "name": "timestamp",
          "type": "uint256"
        },
        {
          "indexed": false,
          "internalType": "uint256",
          "name": "numSubmissions",
          "type": "uint256"
        }
      ],
      "name": "RiskAlertIssued",
      "type": "event"
    },
    {
      "inputs": [
        {
          "internalType": "address",
          "name": "target",
          "type": "address"
        }
      ],
      "name": "adminResetTarget",
      "outputs": [],
      "stateMutability": "nonpayable",
      "type": "function"
    },
    {
      "inputs": [
        {
          "internalType": "address",
          "name": "target",
          "type": "address"
        },
        {
          "internalType": "uint256",
          "name": "index",
          "type": "uint256"
        }
      ],
      "name": "getAssessment",
      "outputs": [
        {
          "internalType": "address",
          "name": "oracle",
          "type": "address"
        },
        {
          "internalType": "uint8",
          "name": "score",
          "type": "uint8"
        },
        {
          "internalType": "string",
          "name": "ipfsCid",
          "type": "string"
        },
        {
          "internalType": "uint256",
          "name": "timestamp",
          "type": "uint256"
        }
      ],
      "stateMutability": "view",
      "type": "function"
    },
    {
      "inputs": [
        {
          "internalType": "address",
          "name": "target",
          "type": "address"
        }
      ],
      "name": "getAssessmentCount",
      "outputs": [
        {
          "internalType": "uint256",
          "name": "",
          "type": "uint256"
        }
      ],
      "stateMutability": "view",
      "type": "function"
    },
    {
      "inputs": [
        {
          "internalType": "address",
          "name": "target",
          "type": "address"
        }
      ],
      "name": "getFinalRisk",
      "outputs": [
        {
          "internalType": "uint8",
          "name": "aggregatedScore",
          "type": "uint8"
        },
        {
          "internalType": "uint8",
          "name": "category",
          "type": "uint8"
        },
        {
          "internalType": "string",
          "name": "ipfsCid",
          "type": "string"
        },
        {
          "internalType": "uint256",
          "name": "timestamp",
          "type": "uint256"
        },
        {
          "internalType": "uint256",
          "name": "numSubmittingOracles",
          "type": "uint256"
        },
        {
          "internalType": "bool",
          "name": "finalized",
          "type": "bool"
        }
      ],
      "stateMutability": "view",
      "type": "function"
    },
    {
      "inputs": [],
      "name": "getOracleCount",
      "outputs": [
        {
          "internalType": "uint256",
          "name": "",
          "type": "uint256"
        }
      ],
      "stateMutability": "view",
      "type": "function"
    },
    {
      "inputs": [],
      "name": "getOracleList",
      "outputs": [
        {
          "internalType": "address[]",
          "name": "",
          "type": "address[]"
        }
      ],
      "stateMutability": "view",
      "type": "function"
    },
    {
      "inputs": [
        {
          "internalType": "address",
          "name": "",
          "type": "address"
        }
      ],
      "name": "isOracle",
      "outputs": [
        {
          "internalType": "bool",
          "name": "",
          "type": "bool"
        }
      ],
      "stateMutability": "view",
      "type": "function"
    },
    {
      "inputs": [],
      "name": "minRequiredSubmissions",
      "outputs": [
        {
          "internalType": "uint256",
          "name": "",
          "type": "uint256"
        }
      ],
      "stateMutability": "view",
      "type": "function"
    },
    {
      "inputs": [
        {
          "internalType": "uint256",
          "name": "",
          "type": "uint256"
        }
      ],
      "name": "oracleList",
      "outputs": [
        {
          "internalType": "address",
          "name": "",
          "type": "address"
        }
      ],
      "stateMutability": "view",
      "type": "function"
    },
    {
      "inputs": [],
      "name": "owner",
      "outputs": [
        {
          "internalType": "address",
          "name": "",
          "type": "address"
        }
      ],
      "stateMutability": "view",
      "type": "function"
    },
    {
      "inputs": [],
      "name": "quorumPercent",
      "outputs": [
        {
          "internalType": "uint8",
          "name": "",
          "type": "uint8"
        }
      ],
      "stateMutability": "view",
      "type": "function"
    },
    {
      "inputs": [
        {
          "internalType": "address",
          "name": "oracle",
          "type": "address"
        }
      ],
      "name": "registerOracle",
      "outputs": [],
      "stateMutability": "nonpayable",
      "type": "function"
    },
    {
      "inputs": [
        {
          "internalType": "address",
          "name": "oracle",
          "type": "address"
        }
      ],
      "name": "removeOracle",
      "outputs": [],
      "stateMutability": "nonpayable",
      "type": "function"
    },
    {
      "inputs": [
        {
          "internalType": "uint256",
          "name": "_minRequiredSubmissions",
          "type": "uint256"
        },
        {
          "internalType": "uint8",
          "name": "_quorumPercent",
          "type": "uint8"
        }
      ],
      "name": "setConsensusParams",
      "outputs": [],
      "stateMutability": "nonpayable",
      "type": "function"
    },
    {
      "inputs": [
        {
          "internalType": "address",
          "name": "target",
          "type": "address"
        },
        {
          "internalType": "uint8",
          "name": "score",
          "type": "uint8"
        },
        {
          "internalType": "string",
          "name": "ipfsCid",
          "type": "string"
        }
      ],
      "name": "submitAssessment",
      "outputs": [],
      "stateMutability": "nonpayable",
      "type": "function"
    },
    {
      "inputs": [
        {
          "internalType": "address",
          "name": "newOwner",
          "type": "address"
        }
      ],
      "name": "transferOwnership",
      "outputs": [],
      "stateMutability": "nonpayable",
      "type": "function"
    }
  ],
  "bytecode": "0x6080604052600380556004805460ff191660421790553480156200002257600080fd5b5060405162001dc238038062001dc2833981016040819052620000459162000235565b600080546001600160a01b031916331790558115620000645760038290555b60ff811615620000d75760648160ff161115620000c75760405162461bcd60e51b815260206004820152601560248201527f71756f72756d50657263656e74206d6178203130300000000000000000000000604482015260640160405180910390fd5b6004805460ff191660ff83161790555b60005b8351811015620001e6576000848281518110620000fb57620000fb62000325565b6020026020010151905060006001600160a01b0316816001600160a01b0316141580156200014257506001600160a01b03811660009081526001602052604090205460ff16155b15620001d2576001600160a01b0381166000818152600160208190526040808320805460ff19168317905560028054928301815583527f405787fa12a823e0f2b7631cc41b3ba8828b3321ca811111fa75cd3aa3bb5ace90910180546001600160a01b03191684179055517f8113318c89f778b31eece8287ef7a174c7f358f5d83bd4b1107e5961cdd66d319190a25b50620001de816200033b565b9050620000da565b5050505062000363565b634e487b7160e01b600052604160045260246000fd5b80516001600160a01b03811681146200021e57600080fd5b919050565b805160ff811681146200021e57600080fd5b6000806000606084860312156200024b57600080fd5b83516001600160401b03808211156200026357600080fd5b818601915086601f8301126200027857600080fd5b81516020828211156200028f576200028f620001f0565b8160051b604051601f19603f83011681018181108682111715620002b757620002b7620001f0565b60405292835281830193508481018201928a841115620002d657600080fd5b948201945b83861015620002ff57620002ef8662000206565b85529482019493820193620002db565b8098505050808801519550505050506200031c6040850162000223565b90509250925092565b634e487b7160e01b600052603260045260246000fd5b6000600182016200035c57634e487b7160e01b600052601160045260246000fd5b5060010190565b611a4f80620003736000396000f3fe608060405234801561001057600080fd5b50600436106101005760003560e01c8063a97e5c9311610097578063e9babaec11610066578063e9babaec1461025b578063f2fde38b1461026e578063f81cbd2614610281578063fdc85fc4146102a057600080fd5b8063a97e5c93146101e7578063b59717861461021a578063c3605d5e1461022d578063cb3683161461023657600080fd5b8063510c27ad116100d3578063510c27ad146101895780635b5d52c01461019e5780638da5cb5b146101c15780639352980c146101d457600080fd5b8063239aad0d146101055780632cbb9f211461013557806332cc0b481461014a5780633f4e425114610181575b600080fd5b6101186101133660046114e9565b6102b3565b6040516001600160a01b0390911681526020015b60405180910390f35b61014861014336600461151e565b6102dd565b005b61017361015836600461151e565b6001600160a01b031660009081526006602052604090205490565b60405190815260200161012c565b600254610173565b61019161042e565b60405161012c9190611540565b6101b16101ac36600461158d565b610490565b60405161012c94939291906115fd565b600054610118906001600160a01b031681565b6101486101e236600461164c565b6105eb565b61020a6101f536600461151e565b60016020526000908152604090205460ff1681565b604051901515815260200161012c565b610148610228366004611678565b6106cb565b61017360035481565b61024961024436600461151e565b6109e7565b60405161012c96959493929190611706565b61014861026936600461151e565b610b09565b61014861027c36600461151e565b610c5e565b60045461028e9060ff1681565b60405160ff909116815260200161012c565b6101486102ae36600461151e565b610ce9565b600281815481106102c357600080fd5b6000918252602090912001546001600160a01b0316905081565b6000546001600160a01b031633146103105760405162461bcd60e51b81526004016103079061174b565b60405180910390fd5b6001600160a01b038116600090815260066020526040812054905b818110156103aa576001600160a01b038316600090815260066020526040812080548390811061035d5761035d61176f565b600091825260208083206003909202909101546001600160a01b0387811684526005835260408085209190921684529091529020805460ff19169055506103a38161179b565b905061032b565b506001600160a01b03821660009081526006602052604081206103cc9161141f565b6001600160a01b0382166000908152600760205260408120805461ffff19168155906103fb6001830182611443565b5060006002820181905560039091018190556001600160a01b03909216825250600860205260409020805460ff19169055565b6060600280548060200260200160405190810160405280929190818152602001828054801561048657602002820191906000526020600020905b81546001600160a01b03168152600190910190602001808311610468575b5050505050905090565b6001600160a01b0382166000908152600660205260408120548190606090829085106104ea5760405162461bcd60e51b815260206004820152600960248201526834b73232bc1027a7a160b91b6044820152606401610307565b6001600160a01b03861660009081526006602052604081208054879081106105145761051461176f565b60009182526020909120600390910201805460028201546001830180549394506001600160a01b03831693600160a01b90930460ff16929091908290610559906117b4565b80601f0160208091040260200160405190810160405280929190818152602001828054610585906117b4565b80156105d25780601f106105a7576101008083540402835291602001916105d2565b820191906000526020600020905b8154815290600101906020018083116105b557829003601f168201915b5050505050915094509450945094505092959194509250565b6000546001600160a01b031633146106155760405162461bcd60e51b81526004016103079061174b565b600182101561065c5760405162461bcd60e51b81526020600482015260136024820152726d696e207375626d697373696f6e73203e3d3160681b6044820152606401610307565b60018160ff1610158015610674575060648160ff1611155b6106b05760405162461bcd60e51b815260206004820152600d60248201526c071756f72756d20312e2e31303609c1b6044820152606401610307565b6003919091556004805460ff191660ff909216919091179055565b3360009081526001602052604090205460ff1661072a5760405162461bcd60e51b815260206004820152601760248201527f4f6e6c792077686974656c6973746564206f7261636c650000000000000000006044820152606401610307565b6001600160a01b0384166107715760405162461bcd60e51b815260206004820152600e60248201526d1a5b9d985b1a59081d185c99d95d60921b6044820152606401610307565b60648360ff1611156107b45760405162461bcd60e51b815260206004820152600c60248201526b073636f726520302e2e3130360a41b6044820152606401610307565b6001600160a01b03841660009081526008602052604090205460ff16156108095760405162461bcd60e51b8152602060048201526009602482015268199a5b985b1a5e995960ba1b6044820152606401610307565b6001600160a01b038416600090815260056020908152604080832033845290915290205460ff16156108715760405162461bcd60e51b8152602060048201526011602482015270185b1c9958591e481cdd589b5a5d1d1959607a1b6044820152606401610307565b6001600160a01b038416600081815260056020908152604080832033808552908352818420805460ff191660011790559383526006825291829020825160808101845293845260ff8716848301528251601f86018390048302810183018452858152909392830191869086908190840183828082843760009201829052509385525050426020938401525083546001818101865594825290829020835160039092020180549284015160ff16600160a01b026001600160a81b03199093166001600160a01b03909216919091179190911781556040820151919290919082019061095b9082611853565b50606082015181600201555050336001600160a01b0316846001600160a01b03167f63ebb673677debf7d7895241d143f8f060e8bba3c9fd2e1284b4ec15c3f05e848585856040516109af93929190611913565b60405180910390a36003546001600160a01b038516600090815260066020526040902054106109e1576109e184610ec4565b50505050565b6001600160a01b0381166000908152600760209081526040808320600890925282205482916060918391829182919060ff16610a42575050604080516020810190915260008082529550859450925083915081905080610b00565b8054600282015460038301546001808501805460ff808716966101009004169491939192908490610a72906117b4565b80601f0160208091040260200160405190810160405280929190818152602001828054610a9e906117b4565b8015610aeb5780601f10610ac057610100808354040283529160200191610aeb565b820191906000526020600020905b815481529060010190602001808311610ace57829003601f168201915b50505050509350965096509650965096509650505b91939550919395565b6000546001600160a01b03163314610b335760405162461bcd60e51b81526004016103079061174b565b6001600160a01b038116610b785760405162461bcd60e51b815260206004820152600c60248201526b7a65726f206164647265737360a01b6044820152606401610307565b6001600160a01b03811660009081526001602052604090205460ff1615610bd25760405162461bcd60e51b815260206004820152600e60248201526d616c7265616479206f7261636c6560901b6044820152606401610307565b6001600160a01b0381166000818152600160208190526040808320805460ff19168317905560028054928301815583527f405787fa12a823e0f2b7631cc41b3ba8828b3321ca811111fa75cd3aa3bb5ace90910180546001600160a01b03191684179055517f8113318c89f778b31eece8287ef7a174c7f358f5d83bd4b1107e5961cdd66d319190a250565b6000546001600160a01b03163314610c885760405162461bcd60e51b81526004016103079061174b565b6001600160a01b038116610cc75760405162461bcd60e51b8152600401610307906020808252600490820152637a65726f60e01b604082015260600190565b600080546001600160a01b0319166001600160a01b0392909216919091179055565b6000546001600160a01b03163314610d135760405162461bcd60e51b81526004016103079061174b565b6001600160a01b03811660009081526001602052604090205460ff16610d685760405162461bcd60e51b815260206004820152600a6024820152696e6f74206f7261636c6560b01b6044820152606401610307565b6001600160a01b0381166000908152600160205260408120805460ff191690555b600254811015610e8c57816001600160a01b031660028281548110610db057610db061176f565b6000918252602090912001546001600160a01b031603610e7c5760028054610dda9060019061194c565b81548110610dea57610dea61176f565b600091825260209091200154600280546001600160a01b039092169183908110610e1657610e1661176f565b9060005260206000200160006101000a8154816001600160a01b0302191690836001600160a01b031602179055506002805480610e5557610e5561195f565b600082815260209020810160001990810180546001600160a01b0319169055019055610e8c565b610e858161179b565b9050610d89565b506040516001600160a01b038216907f69c51e6934c7e0a7856e09a188ca387c2117bbe5c65c85321ae46452e11497f890600090a250565b6001600160a01b03811660009081526006602052604090208054600354811015610eed57505050565b610ef561147d565b6000805b83811015610f8a576000858281548110610f1557610f1561176f565b6000918252602090912060039091020154600160a01b900460ff169050610f3c8184611975565b92506000610f498261115d565b90506001858260ff1660038110610f6257610f6261176f565b60200201818151610f739190611975565b905250610f83915082905061179b565b9050610ef9565b50815160009060015b60038160ff161015610ff05781858260ff1660038110610fb557610fb561176f565b60200201511115610fe057848160ff1660038110610fd557610fd561176f565b602002015191508092505b610fe981611988565b9050610f93565b5060045461100290869060ff166119a7565b61100d8260646119a7565b1061115457600061101e86856119be565b9050600061102c888561118e565b90506040518060a001604052808360ff1681526020018560ff16815260200182815260200142815260200188815250600760008b6001600160a01b03166001600160a01b0316815260200190815260200160002060008201518160000160006101000a81548160ff021916908360ff16021790555060208201518160000160016101000a81548160ff021916908360ff16021790555060408201518160010190816110d79190611853565b50606082015160028201556080909101516003909101556001600160a01b03891660008181526008602052604090819020805460ff19166001179055517f2bdd28cd335614e48b5721fd76363da98165cb0cdba9b60c1c3d76e2867835ac906111499085908890869042908e906119e0565b60405180910390a250505b50505050505050565b6000601e8260ff161161117257506000919050565b60468260ff16101561118657506001919050565b506002919050565b6040805160208082018352600080835283519182019093528281526060925b85548110156113e45760008682815481106111ca576111ca61176f565b906000526020600020906003020160010180546111e6906117b4565b90501180156111f457508251155b156112a85785818154811061120b5761120b61176f565b90600052602060002090600302016001018054611227906117b4565b80601f0160208091040260200160405190810160405280929190818152602001828054611253906117b4565b80156112a05780601f10611275576101008083540402835291602001916112a0565b820191906000526020600020905b81548152906001019060200180831161128357829003601f168201915b505050505092505b8460ff166112e18783815481106112c1576112c161176f565b6000918252602090912060039091020154600160a01b900460ff1661115d565b60ff16036113d45760008682815481106112fd576112fd61176f565b90600052602060002090600302016001018054611319906117b4565b905011156113d4578581815481106113335761133361176f565b9060005260206000209060030201600101805461134f906117b4565b80601f016020809104026020016040519081016040528092919081815260200182805461137b906117b4565b80156113c85780601f1061139d576101008083540402835291602001916113c8565b820191906000526020600020905b8154815290600101906020018083116113ab57829003601f168201915b505050505091506113e4565b6113dd8161179b565b90506111ad565b508051156113f55791506114199050565b81511561140457509050611419565b60405180602001604052806000815250925050505b92915050565b5080546000825560030290600052602060002090810190611440919061149b565b50565b50805461144f906117b4565b6000825580601f1061145f575050565b601f01602090049060005260206000209081019061144091906114d4565b60405180606001604052806003906020820280368337509192915050565b808211156114d05780546001600160a81b031916815560006114c06001830182611443565b506000600282015560030161149b565b5090565b5b808211156114d057600081556001016114d5565b6000602082840312156114fb57600080fd5b5035919050565b80356001600160a01b038116811461151957600080fd5b919050565b60006020828403121561153057600080fd5b61153982611502565b9392505050565b6020808252825182820181905260009190848201906040850190845b818110156115815783516001600160a01b03168352928401929184019160010161155c565b50909695505050505050565b600080604083850312156115a057600080fd5b6115a983611502565b946020939093013593505050565b6000815180845260005b818110156115dd576020818501810151868301820152016115c1565b506000602082860101526020601f19601f83011685010191505092915050565b6001600160a01b038516815260ff8416602082015260806040820181905260009061162a908301856115b7565b905082606083015295945050505050565b803560ff8116811461151957600080fd5b6000806040838503121561165f57600080fd5b8235915061166f6020840161163b565b90509250929050565b6000806000806060858703121561168e57600080fd5b61169785611502565b93506116a56020860161163b565b9250604085013567ffffffffffffffff808211156116c257600080fd5b818701915087601f8301126116d657600080fd5b8135818111156116e557600080fd5b8860208285010111156116f757600080fd5b95989497505060200194505050565b60ff8716815260ff8616602082015260c06040820152600061172b60c08301876115b7565b6060830195909552506080810192909252151560a0909101529392505050565b6020808252600a908201526927b7363c9037bbb732b960b11b604082015260600190565b634e487b7160e01b600052603260045260246000fd5b634e487b7160e01b600052601160045260246000fd5b6000600182016117ad576117ad611785565b5060010190565b600181811c908216806117c857607f821691505b6020821081036117e857634e487b7160e01b600052602260045260246000fd5b50919050565b634e487b7160e01b600052604160045260246000fd5b601f82111561184e57600081815260208120601f850160051c8101602086101561182b5750805b601f850160051c820191505b8181101561184a57828155600101611837565b5050505b505050565b815167ffffffffffffffff81111561186d5761186d6117ee565b6118818161187b84546117b4565b84611804565b602080601f8311600181146118b6576000841561189e5750858301515b600019600386901b1c1916600185901b17855561184a565b600085815260208120601f198616915b828110156118e5578886015182559484019460019091019084016118c6565b50858210156119035787850151600019600388901b60f8161c191681555b5050505050600190811b01905550565b60ff8416815260406020820152816040820152818360608301376000818301606090810191909152601f909201601f1916010192915050565b8181038181111561141957611419611785565b634e487b7160e01b600052603160045260246000fd5b8082018082111561141957611419611785565b600060ff821660ff810361199e5761199e611785565b60010192915050565b808202811582820484141761141957611419611785565b6000826119db57634e487b7160e01b600052601260045260246000fd5b500490565b60ff8616815260ff8516602082015260a060408201526000611a0560a08301866115b7565b60608301949094525060800152939250505056fea2646970667358221220d964ff47d1e0fcf9dd1f3fbe42f20e9b769143ba02605523d3b10ce1381f8e9964736f6c63430008140033",
  "linkReferences": {},
  "deployedLinkReferences": {}
}