{
  "_format": "hh-sol-artifact-1",
  "contractName": "AIOracleAggregator",
  "sourceName": "contracts/AIOracleAggregator.sol",
  "abi": [
    {
      "inputs": [
        {
          "internalType": "address[]",
          "name": "initialOracles",
          "type": "address[]"
        },
        {
          "internalType": "uint256",
          "name": "_minRequiredSubmissions",
          "type": "uint256"
        },
        {
          "internalType": "uint8",
          "name": "_quorumPercent",
          "type": "uint8"
        }
      ],
      "stateMutability": "nonpayable",
      "type": "constructor"
    },
    {
      "anonymous": false,
      "inputs": [
        {
          "indexed": true,
          "internalType": "address",
          "name": "target",
          "type": "address"
        },
        {
          "indexed": true,
          "internalType": "address",
          "name": "oracle",
          "type": "address"
        },
        {
          "indexed": false,
          "internalType": "uint8",
          "name": "score",
          "type": "uint8"
        },
        {
          "indexed": false,
          "internalType": "string",
          "name": "ipfsCid",
          "type": "string"
        }
      ],
      "name": "AssessmentSubmitted",
      "type": "event"
    },
    {
      "anonymous": false,
      "inputs": [
        {
          "indexed": true,
          "internalType": "address",
          "name": "oracle",
          "type": "address"
        }
      ],
      "name": "OracleNodeRegistered",
      "type": "event"
    },
    {
      "anonymous": false,
      "inputs": [
        {
          "indexed": true,
          "internalType": "address",
          "name": "oracle",
          "type": "address"
        }
      ],
      "name": "OracleNodeRemoved",
      "type": "event"
    },
    {
      "anonymous": false,
      "inputs": [
        {
          "indexed": true,
          "internalType": "address",
          "name": "target",
          "type": "address"
        },
        {
          "indexed": false,
          "internalType": "uint8",
          "name": "aggregatedScore",
          "type": "uint8"
        },
        {
          "indexed": false,
          "internalType": "uint8",
          "name": "category",
          "type": "uint8"
        },
        {
          "indexed": false,
          "internalType": "string",
          "name": "ipfsCid",
          "type": "string"
        },
        {
          "indexed": false,
          "internalType": "uint256",
          "name": "timestamp",
          "type": "uint256"
        },
        {
          "indexed": false,
          "internalType": "uint256",
          "name": "numSubmissions",
          "type": "uint256"
        }
      ],
      "name": "RiskAlertIssued",
      "type": "event"
    },
    {
      "inputs": [
        {
          "internalType": "address",
          "name": "target",
          "type": "address"
        }
      ],
      "name": "adminResetTarget",
      "outputs": [],
      "stateMutability": "nonpayable",
      "type": "function"
    },
    {
      "inputs": [
        {
          "internalType": "address",
          "name": "target",
          "type": "address"
        },
        {
          "internalType": "uint256",
          "name": "index",
          "type": "uint256"
        }
      ],
      "name": "getAssessment",
      "outputs": [
        {
          "internalType": "address",
          "name": "oracle",
          "type": "address"
        },
        {
          "internalType": "uint8",
          "name": "score",
          "type": "uint8"
        },
        {
          "internalType": "string",
          "name": "ipfsCid",
          "type": "string"
        },
        {
          "internalType": "uint256",
          "name": "timestamp",
          "type": "uint256"
        }
      ],
      "stateMutability": "view",
      "type": "function"
    },
    {
      "inputs": [
        {
          "internalType": "address",
          "name": "target",
          "type": "address"
        }
      ],
      "name": "getAssessmentCount",
      "outputs": [
        {
          "internalType": "uint256",
          "name": "",
          "type": "uint256"
        }
      ],
      "stateMutability": "view",
      "type": "function"
    },
    {
      "inputs": [
        {
          "internalType": "address",
          "name": "target",
          "type": "address"
        }
      ],
      "name": "getFinalRisk",
      "outputs": [
        {
          "internalType": "uint8",
          "name": "aggregatedScore",
          "type": "uint8"
        },
        {
          "internalType": "uint8",
          "name": "category",
          "type": "uint8"
        },
        {
          "internalType": "string",
          "name": "ipfsCid",
          "type": "string"
        },
        {
          "internalType": "uint256",
          "name": "timestamp",
          "type": "uint256"
        },
        {
          "internalType": "uint256",
          "name": "numSubmittingOracles",
          "type": "uint256"
        },
        {
          "internalType": "bool",
          "name": "finalized",
          "type": "bool"
        }
      ],
      "stateMutability": "view",
      "type": "function"
    },
    {
      "inputs": [],
      "name": "getOracleCount",
      "outputs": [
        {
          "internalType": "uint256",
          "name": "",
          "type": "uint256"
        }
      ],
      "stateMutability": "view",
      "type": "function"
    },
    {
      "inputs": [],
      "name": "getOracleList",
      "outputs": [
        {
          "internalType": "address[]",
          "name": "",
          "type": "address[]"
        }
      ],
      "stateMutability": "view",
      "type": "function"
    },
    {
      "inputs": [
        {
          "internalType": "address",
          "name": "",
          "type": "address"
        }
      ],
      "name": "isOracle",
      "outputs": [
        {
          "internalType": "bool",
          "name": "",
          "type": "bool"
        }
      ],
      "stateMutability": "view",
      "type": "function"
    },
    {
      "inputs": [],
      "name": "minRequiredSubmissions",
      "outputs": [
        {
          "internalType": "uint256",
          "name": "",
          "type": "uint256"
        }
      ],
      "stateMutability": "view",
      "type": "function"
    },
    {
      "inputs": [
        {
          "internalType": "uint256",
          "name": "",
          "type": "uint256"
        }
      ],
      "name": "oracleList",
      "outputs": [
        {
          "internalType": "address",
          "name": "",
          "type": "address"
        }
      ],
      "stateMutability": "view",
      "type": "function"
    },
    {
      "inputs": [],
      "name": "owner",
      "outputs": [
        {
          "internalType": "address",
          "name": "",
          "type": "address"
        }
      ],
      "stateMutability": "view",
      "type": "function"
    },
    {
      "inputs": [],
      "name": "quorumPercent",
      "outputs": [
        {
          "internalType": "uint8",
          "name": "",
          "type": "uint8"
        }
      ],
      "stateMutability": "view",
      "type": "function"
    },
    {
      "inputs": [
        {
          "internalType": "address",
          "name": "oracle",
          "type": "address"
        }
      ],
      "name": "registerOracle",
      "outputs": [],
      "stateMutability": "nonpayable",
      "type": "function"
    },
    {
      "inputs": [
        {
          "internalType": "address",
          "name": "oracle",
          "type": "address"
        }
      ],
      "name": "removeOracle",
      "outputs": [],
      "stateMutability": "nonpayable",
      "type": "function"
    },
    {
      "inputs": [
        {
          "internalType": "uint256",
          "name": "_minRequiredSubmissions",
          "type": "uint256"
        },
        {
          "internalType": "uint8",
          "name": "_quorumPercent",
          "type": "uint8"
        }
      ],
      "name": "setConsensusParams",
      "outputs": [],
      "stateMutability": "nonpayable",
      "type": "function"
    },
    {
      "inputs": [
        {
          "internalType": "address",
          "name": "target",
          "type": "address"
        },
        {
          "internalType": "uint8",
          "name": "score",
          "type": "uint8"
        },
        {
          "internalType": "string",
          "name": "ipfsCid",
          "type": "string"
        }
      ],
      "name": "submitAssessment",
      "outputs": [],
      "stateMutability": "nonpayable",
      "type": "function"
    },
    {
      "inputs": [
        {
          "internalType": "address",
          "name": "newOwner",
          "type": "address"
        }
      ],
      "name": "transferOwnership",
      "outputs": [],
      "stateMutability": "nonpayable",
      "type": "function"
    }
  ],
  "bytecode": "0x6080604052600380556042600460006101000a81548160ff021916908360ff1602179055503480156200003157600080fd5b506040516200389d3803806200389d83398181016040528101906200005791906200055d565b336000806101000a81548173ffffffffffffffffffffffffffffffffffffffff021916908373ffffffffffffffffffffffffffffffffffffffff1602179055506000821115620000a957816003819055505b60008160ff1611156200011c5760648160ff16111562000100576040517f08c379a0000000000000000000000000000000000000000000000000000000008152600401620000f79062000639565b60405180910390fd5b80600460006101000a81548160ff021916908360ff1602179055505b60005b8351811015620002ec5760008482815181106200014157620001406200065b565b5b60200260200101519050600073ffffffffffffffffffffffffffffffffffffffff168173ffffffffffffffffffffffffffffffffffffffff1614158015620001d35750600160008273ffffffffffffffffffffffffffffffffffffffff1673ffffffffffffffffffffffffffffffffffffffff16815260200190815260200160002060009054906101000a900460ff16155b15620002d75760018060008373ffffffffffffffffffffffffffffffffffffffff1673ffffffffffffffffffffffffffffffffffffffff16815260200190815260200160002060006101000a81548160ff0219169083151502179055506002819080600181540180825580915050600190039060005260206000200160009091909190916101000a81548173ffffffffffffffffffffffffffffffffffffffff021916908373ffffffffffffffffffffffffffffffffffffffff1602179055508073ffffffffffffffffffffffffffffffffffffffff167f8113318c89f778b31eece8287ef7a174c7f358f5d83bd4b1107e5961cdd66d3160405160405180910390a25b5080620002e490620006b9565b90506200011f565b5050505062000706565b6000604051905090565b600080fd5b600080fd5b600080fd5b6000601f19601f8301169050919050565b7f4e487b7100000000000000000000000000000000000000000000000000000000600052604160045260246000fd5b6200035a826200030f565b810181811067ffffffffffffffff821117156200037c576200037b62000320565b5b80604052505050565b600062000391620002f6565b90506200039f82826200034f565b919050565b600067ffffffffffffffff821115620003c257620003c162000320565b5b602082029050602081019050919050565b600080fd5b600073ffffffffffffffffffffffffffffffffffffffff82169050919050565b60006200040582620003d8565b9050919050565b6200041781620003f8565b81146200042357600080fd5b50565b60008151905062000437816200040c565b92915050565b6000620004546200044e84620003a4565b62000385565b905080838252602082019050602084028301858111156200047a5762000479620003d3565b5b835b81811015620004a7578062000492888262000426565b8452602084019350506020810190506200047c565b5050509392505050565b600082601f830112620004c957620004c86200030a565b5b8151620004db8482602086016200043d565b91505092915050565b6000819050919050565b620004f981620004e4565b81146200050557600080fd5b50565b6000815190506200051981620004ee565b92915050565b600060ff82169050919050565b62000537816200051f565b81146200054357600080fd5b50565b60008151905062000557816200052c565b92915050565b60008060006060848603121562000579576200057862000300565b5b600084015167ffffffffffffffff8111156200059a576200059962000305565b5b620005a886828701620004b1565b9350506020620005bb8682870162000508565b9250506040620005ce8682870162000546565b9150509250925092565b600082825260208201905092915050565b7f71756f72756d50657263656e74206d6178203130300000000000000000000000600082015250565b600062000621601583620005d8565b91506200062e82620005e9565b602082019050919050565b60006020820190508181036000830152620006548162000612565b9050919050565b7f4e487b7100000000000000000000000000000000000000000000000000000000600052603260045260246000fd5b7f4e487b7100000000000000000000000000000000000000000000000000000000600052601160045260246000fd5b6000620006c682620004e4565b91507fffffffffffffffffffffffffffffffffffffffffffffffffffffffffffffffff8203620006fb57620006fa6200068a565b5b600182019050919050565b61318780620007166000396000f3fe608060405234801561001057600080fd5b50600436106101005760003560e01c8063a97e5c9311610097578063e9babaec11610066578063e9babaec146102c9578063f2fde38b146102e5578063f81cbd2614610301578063fdc85fc41461031f57610100565b8063a97e5c931461022a578063b59717861461025a578063c3605d5e14610276578063cb3683161461029457610100565b8063510c27ad116100d3578063510c27ad1461019f5780635b5d52c0146101bd5780638da5cb5b146101f05780639352980c1461020e57610100565b8063239aad0d146101055780632cbb9f211461013557806332cc0b48146101515780633f4e425114610181575b600080fd5b61011f600480360381019061011a91906120d6565b61033b565b60405161012c9190612144565b60405180910390f35b61014f600480360381019061014a919061218b565b61037a565b005b61016b6004803603810190610166919061218b565b6106ba565b60405161017891906121c7565b60405180910390f35b610189610706565b60405161019691906121c7565b60405180910390f35b6101a7610713565b6040516101b491906122a0565b60405180910390f35b6101d760048036038101906101d291906122c2565b6107a1565b6040516101e794939291906123ae565b60405180910390f35b6101f861096d565b6040516102059190612144565b60405180910390f35b61022860048036038101906102239190612426565b610991565b005b610244600480360381019061023f919061218b565b610ae0565b6040516102519190612481565b60405180910390f35b610274600480360381019061026f9190612501565b610b00565b005b61027e611062565b60405161028b91906121c7565b60405180910390f35b6102ae60048036038101906102a9919061218b565b611068565b6040516102c096959493929190612575565b60405180910390f35b6102e360048036038101906102de919061218b565b611209565b005b6102ff60048036038101906102fa919061218b565b611493565b005b6103096115d3565b60405161031691906125dd565b60405180910390f35b6103396004803603810190610334919061218b565b6115e6565b005b6002818154811061034b57600080fd5b906000526020600020016000915054906101000a900473ffffffffffffffffffffffffffffffffffffffff1681565b60008054906101000a900473ffffffffffffffffffffffffffffffffffffffff1673ffffffffffffffffffffffffffffffffffffffff163373ffffffffffffffffffffffffffffffffffffffff1614610408576040517f08c379a00000000000000000000000000000000000000000000000000000000081526004016103ff90612644565b60405180910390fd5b6000600660008373ffffffffffffffffffffffffffffffffffffffff1673ffffffffffffffffffffffffffffffffffffffff16815260200190815260200160002080549050905060005b81811015610588576000600660008573ffffffffffffffffffffffffffffffffffffffff1673ffffffffffffffffffffffffffffffffffffffff16815260200190815260200160002082815481106104ad576104ac612664565b5b906000526020600020906003020160000160009054906101000a900473ffffffffffffffffffffffffffffffffffffffff1690506000600560008673ffffffffffffffffffffffffffffffffffffffff1673ffffffffffffffffffffffffffffffffffffffff16815260200190815260200160002060008373ffffffffffffffffffffffffffffffffffffffff1673ffffffffffffffffffffffffffffffffffffffff16815260200190815260200160002060006101000a81548160ff0219169083151502179055505080610581906126c2565b9050610452565b50600660008373ffffffffffffffffffffffffffffffffffffffff1673ffffffffffffffffffffffffffffffffffffffff16815260200190815260200160002060006105d49190611f89565b600760008373ffffffffffffffffffffffffffffffffffffffff1673ffffffffffffffffffffffffffffffffffffffff168152602001908152602001600020600080820160006101000a81549060ff02191690556000820160016101000a81549060ff021916905560018201600061064c9190611fad565b6002820160009055600382016000905550506000600860008473ffffffffffffffffffffffffffffffffffffffff1673ffffffffffffffffffffffffffffffffffffffff16815260200190815260200160002060006101000a81548160ff0219169083151502179055505050565b6000600660008373ffffffffffffffffffffffffffffffffffffffff1673ffffffffffffffffffffffffffffffffffffffff168152602001908152602001600020805490509050919050565b6000600280549050905090565b6060600280548060200260200160405190810160405280929190818152602001828054801561079757602002820191906000526020600020905b8160009054906101000a900473ffffffffffffffffffffffffffffffffffffffff1673ffffffffffffffffffffffffffffffffffffffff168152602001906001019080831161074d575b5050505050905090565b60008060606000600660008773ffffffffffffffffffffffffffffffffffffffff1673ffffffffffffffffffffffffffffffffffffffff16815260200190815260200160002080549050851061082c576040517f08c379a000000000000000000000000000000000000000000000000000000000815260040161082390612756565b60405180910390fd5b6000600660008873ffffffffffffffffffffffffffffffffffffffff1673ffffffffffffffffffffffffffffffffffffffff168152602001908152602001600020868154811061087f5761087e612664565b5b906000526020600020906003020190508060000160009054906101000a900473ffffffffffffffffffffffffffffffffffffffff168160000160149054906101000a900460ff168260010183600201548180546108db906127a5565b80601f0160208091040260200160405190810160405280929190818152602001828054610907906127a5565b80156109545780601f1061092957610100808354040283529160200191610954565b820191906000526020600020905b81548152906001019060200180831161093757829003601f168201915b5050505050915094509450945094505092959194509250565b60008054906101000a900473ffffffffffffffffffffffffffffffffffffffff1681565b60008054906101000a900473ffffffffffffffffffffffffffffffffffffffff1673ffffffffffffffffffffffffffffffffffffffff163373ffffffffffffffffffffffffffffffffffffffff1614610a1f576040517f08c379a0000000000000000000000000000000000000000000000000000000008152600401610a1690612644565b60405180910390fd5b6001821015610a63576040517f08c379a0000000000000000000000000000000000000000000000000000000008152600401610a5a90612822565b60405180910390fd5b60018160ff1610158015610a7b575060648160ff1611155b610aba576040517f08c379a0000000000000000000000000000000000000000000000000000000008152600401610ab19061288e565b60405180910390fd5b8160038190555080600460006101000a81548160ff021916908360ff1602179055505050565b60016020528060005260406000206000915054906101000a900460ff1681565b600160003373ffffffffffffffffffffffffffffffffffffffff1673ffffffffffffffffffffffffffffffffffffffff16815260200190815260200160002060009054906101000a900460ff16610b8c576040517f08c379a0000000000000000000000000000000000000000000000000000000008152600401610b83906128fa565b60405180910390fd5b600073ffffffffffffffffffffffffffffffffffffffff168473ffffffffffffffffffffffffffffffffffffffff1603610bfb576040517f08c379a0000000000000000000000000000000000000000000000000000000008152600401610bf290612966565b60405180910390fd5b60648360ff161115610c42576040517f08c379a0000000000000000000000000000000000000000000000000000000008152600401610c39906129d2565b60405180910390fd5b600860008573ffffffffffffffffffffffffffffffffffffffff1673ffffffffffffffffffffffffffffffffffffffff16815260200190815260200160002060009054906101000a900460ff1615610ccf576040517f08c379a0000000000000000000000000000000000000000000000000000000008152600401610cc690612a3e565b60405180910390fd5b600560008573ffffffffffffffffffffffffffffffffffffffff1673ffffffffffffffffffffffffffffffffffffffff16815260200190815260200160002060003373ffffffffffffffffffffffffffffffffffffffff1673ffffffffffffffffffffffffffffffffffffffff16815260200190815260200160002060009054906101000a900460ff1615610d99576040517f08c379a0000000000000000000000000000000000000000000000000000000008152600401610d9090612aaa565b60405180910390fd5b6001600560008673ffffffffffffffffffffffffffffffffffffffff1673ffffffffffffffffffffffffffffffffffffffff16815260200190815260200160002060003373ffffffffffffffffffffffffffffffffffffffff1673ffffffffffffffffffffffffffffffffffffffff16815260200190815260200160002060006101000a81548160ff021916908315150217905550600660008573ffffffffffffffffffffffffffffffffffffffff1673ffffffffffffffffffffffffffffffffffffffff16815260200190815260200160002060405180608001604052803373ffffffffffffffffffffffffffffffffffffffff1681526020018560ff16815260200184848080601f016020809104026020016040519081016040528093929190818152602001838380828437600081840152601f19601f82011690508083019250505050505050815260200142815250908060018154018082558091505060019003906000526020600020906003020160009091909190915060008201518160000160006101000a81548173ffffffffffffffffffffffffffffffffffffffff021916908373ffffffffffffffffffffffffffffffffffffffff16021790555060208201518160000160146101000a81548160ff021916908360ff1602179055506040820151816001019081610f919190612ca5565b506060820151816002015550503373ffffffffffffffffffffffffffffffffffffffff168473ffffffffffffffffffffffffffffffffffffffff167f63ebb673677debf7d7895241d143f8f060e8bba3c9fd2e1284b4ec15c3f05e84858585604051610fff93929190612db3565b60405180910390a3600354600660008673ffffffffffffffffffffffffffffffffffffffff1673ffffffffffffffffffffffffffffffffffffffff168152602001908152602001600020805490501061105c5761105b84611929565b5b50505050565b60035481565b6000806060600080600080600760008973ffffffffffffffffffffffffffffffffffffffff1673ffffffffffffffffffffffffffffffffffffffff1681526020019081526020016000209050600860008973ffffffffffffffffffffffffffffffffffffffff1673ffffffffffffffffffffffffffffffffffffffff16815260200190815260200160002060009054906101000a900460ff166111325760008060008060006040518060200160405280600081525092919096509650965096509650965050611200565b8060000160009054906101000a900460ff168160000160019054906101000a900460ff1682600101836002015484600301546001838054611172906127a5565b80601f016020809104026020016040519081016040528092919081815260200182805461119e906127a5565b80156111eb5780601f106111c0576101008083540402835291602001916111eb565b820191906000526020600020905b8154815290600101906020018083116111ce57829003601f168201915b50505050509350965096509650965096509650505b91939550919395565b60008054906101000a900473ffffffffffffffffffffffffffffffffffffffff1673ffffffffffffffffffffffffffffffffffffffff163373ffffffffffffffffffffffffffffffffffffffff1614611297576040517f08c379a000000000000000000000000000000000000000000000000000000000815260040161128e90612644565b60405180910390fd5b600073ffffffffffffffffffffffffffffffffffffffff168173ffffffffffffffffffffffffffffffffffffffff1603611306576040517f08c379a00000000000000000000000000000000000000000000000000000000081526004016112fd90612e31565b60405180910390fd5b600160008273ffffffffffffffffffffffffffffffffffffffff1673ffffffffffffffffffffffffffffffffffffffff16815260200190815260200160002060009054906101000a900460ff1615611393576040517f08c379a000000000000000000000000000000000000000000000000000000000815260040161138a90612e9d565b60405180910390fd5b60018060008373ffffffffffffffffffffffffffffffffffffffff1673ffffffffffffffffffffffffffffffffffffffff16815260200190815260200160002060006101000a81548160ff0219169083151502179055506002819080600181540180825580915050600190039060005260206000200160009091909190916101000a81548173ffffffffffffffffffffffffffffffffffffffff021916908373ffffffffffffffffffffffffffffffffffffffff1602179055508073ffffffffffffffffffffffffffffffffffffffff167f8113318c89f778b31eece8287ef7a174c7f358f5d83bd4b1107e5961cdd66d3160405160405180910390a250565b60008054906101000a900473ffffffffffffffffffffffffffffffffffffffff1673ffffffffffffffffffffffffffffffffffffffff163373ffffffffffffffffffffffffffffffffffffffff1614611521576040517f08c379a000000000000000000000000000000000000000000000000000000000815260040161151890612644565b60405180910390fd5b600073ffffffffffffffffffffffffffffffffffffffff168173ffffffffffffffffffffffffffffffffffffffff1603611590576040517f08c379a000000000000000000000000000000000000000000000000000000000815260040161158790612f09565b60405180910390fd5b806000806101000a81548173ffffffffffffffffffffffffffffffffffffffff021916908373ffffffffffffffffffffffffffffffffffffffff16021790555050565b600460009054906101000a900460ff1681565b60008054906101000a900473ffffffffffffffffffffffffffffffffffffffff1673ffffffffffffffffffffffffffffffffffffffff163373ffffffffffffffffffffffffffffffffffffffff1614611674576040517f08c379a000000000000000000000000000000000000000000000000000000000815260040161166b90612644565b60405180910390fd5b600160008273ffffffffffffffffffffffffffffffffffffffff1673ffffffffffffffffffffffffffffffffffffffff16815260200190815260200160002060009054906101000a900460ff16611700576040517f08c379a00000000000000000000000000000000000000000000000000000000081526004016116f790612f75565b60405180910390fd5b6000600160008373ffffffffffffffffffffffffffffffffffffffff1673ffffffffffffffffffffffffffffffffffffffff16815260200190815260200160002060006101000a81548160ff02191690831515021790555060005b6002805490508110156118e2578173ffffffffffffffffffffffffffffffffffffffff166002828154811061179357611792612664565b5b9060005260206000200160009054906101000a900473ffffffffffffffffffffffffffffffffffffffff1673ffffffffffffffffffffffffffffffffffffffff16036118d157600260016002805490506117ed9190612f95565b815481106117fe576117fd612664565b5b9060005260206000200160009054906101000a900473ffffffffffffffffffffffffffffffffffffffff166002828154811061183d5761183c612664565b5b9060005260206000200160006101000a81548173ffffffffffffffffffffffffffffffffffffffff021916908373ffffffffffffffffffffffffffffffffffffffff160217905550600280548061189757611896612fc9565b5b6001900381819060005260206000200160006101000a81549073ffffffffffffffffffffffffffffffffffffffff021916905590556118e2565b806118db906126c2565b905061175b565b508073ffffffffffffffffffffffffffffffffffffffff167f69c51e6934c7e0a7856e09a188ca387c2117bbe5c65c85321ae46452e11497f860405160405180910390a250565b6000600660008373ffffffffffffffffffffffffffffffffffffffff1673ffffffffffffffffffffffffffffffffffffffff1681526020019081526020016000209050600081805490509050600354811015611986575050611c99565b61198e611fed565b6000805b83811015611a315760008582815481106119af576119ae612664565b5b906000526020600020906003020160000160149054906101000a900460ff1690508060ff16836119df9190612ff8565b925060006119ec82611c9c565b90506001858260ff1660038110611a0657611a05612664565b5b60200201818151611a179190612ff8565b91508181525050505080611a2a906126c2565b9050611992565b5060008083600060038110611a4957611a48612664565b5b602002015190506000600190505b60038160ff161015611ab75781858260ff1660038110611a7a57611a79612664565b5b60200201511115611aa657848160ff1660038110611a9b57611a9a612664565b5b602002015191508092505b80611ab09061302c565b9050611a57565b5084600460009054906101000a900460ff1660ff16611ad69190613055565b606482611ae39190613055565b10611c925760008584611af691906130c6565b90506000611b048885611cd1565b90506040518060a001604052808360ff1681526020018560ff16815260200182815260200142815260200188815250600760008b73ffffffffffffffffffffffffffffffffffffffff1673ffffffffffffffffffffffffffffffffffffffff16815260200190815260200160002060008201518160000160006101000a81548160ff021916908360ff16021790555060208201518160000160016101000a81548160ff021916908360ff1602179055506040820151816001019081611bc99190612ca5565b5060608201518160020155608082015181600301559050506001600860008b73ffffffffffffffffffffffffffffffffffffffff1673ffffffffffffffffffffffffffffffffffffffff16815260200190815260200160002060006101000a81548160ff0219169083151502179055508873ffffffffffffffffffffffffffffffffffffffff167f2bdd28cd335614e48b5721fd76363da98165cb0cdba9b60c1c3d76e2867835ac838684428c604051611c879594939291906130f7565b60405180910390a250505b5050505050505b50565b6000601e8260ff1611611cb25760009050611ccc565b60468260ff161015611cc75760019050611ccc565b600290505b919050565b60606000604051806020016040528060008152509050600060405180602001604052806000815250905060005b8580549050811015611f45576000868281548110611d1f57611d1e612664565b5b90600052602060002090600302016001018054611d3b906127a5565b9050118015611d4b575060008351145b15611e0057858181548110611d6357611d62612664565b5b90600052602060002090600302016001018054611d7f906127a5565b80601f0160208091040260200160405190810160405280929190818152602001828054611dab906127a5565b8015611df85780601f10611dcd57610100808354040283529160200191611df8565b820191906000526020600020905b815481529060010190602001808311611ddb57829003601f168201915b505050505092505b8460ff16611e3e878381548110611e1a57611e19612664565b5b906000526020600020906003020160000160149054906101000a900460ff16611c9c565b60ff1603611f34576000868281548110611e5b57611e5a612664565b5b90600052602060002090600302016001018054611e77906127a5565b90501115611f3357858181548110611e9257611e91612664565b5b90600052602060002090600302016001018054611eae906127a5565b80601f0160208091040260200160405190810160405280929190818152602001828054611eda906127a5565b8015611f275780601f10611efc57610100808354040283529160200191611f27565b820191906000526020600020905b815481529060010190602001808311611f0a57829003601f168201915b50505050509150611f45565b5b80611f3e906126c2565b9050611cfe565b50600081511115611f5a578092505050611f83565b600082511115611f6e578192505050611f83565b60405180602001604052806000815250925050505b92915050565b5080546000825560030290600052602060002090810190611faa919061200f565b50565b508054611fb9906127a5565b6000825580601f10611fcb5750611fea565b601f016020900490600052602060002090810190611fe99190612079565b5b50565b6040518060600160405280600390602082028036833780820191505090505090565b5b8082111561207557600080820160006101000a81549073ffffffffffffffffffffffffffffffffffffffff02191690556000820160146101000a81549060ff02191690556001820160006120649190611fad565b600282016000905550600301612010565b5090565b5b8082111561209257600081600090555060010161207a565b5090565b600080fd5b600080fd5b6000819050919050565b6120b3816120a0565b81146120be57600080fd5b50565b6000813590506120d0816120aa565b92915050565b6000602082840312156120ec576120eb612096565b5b60006120fa848285016120c1565b91505092915050565b600073ffffffffffffffffffffffffffffffffffffffff82169050919050565b600061212e82612103565b9050919050565b61213e81612123565b82525050565b60006020820190506121596000830184612135565b92915050565b61216881612123565b811461217357600080fd5b50565b6000813590506121858161215f565b92915050565b6000602082840312156121a1576121a0612096565b5b60006121af84828501612176565b91505092915050565b6121c1816120a0565b82525050565b60006020820190506121dc60008301846121b8565b92915050565b600081519050919050565b600082825260208201905092915050565b6000819050602082019050919050565b61221781612123565b82525050565b6000612229838361220e565b60208301905092915050565b6000602082019050919050565b600061224d826121e2565b61225781856121ed565b9350612262836121fe565b8060005b8381101561229357815161227a888261221d565b975061228583612235565b925050600181019050612266565b5085935050505092915050565b600060208201905081810360008301526122ba8184612242565b905092915050565b600080604083850312156122d9576122d8612096565b5b60006122e785828601612176565b92505060206122f8858286016120c1565b9150509250929050565b600060ff82169050919050565b61231881612302565b82525050565b600081519050919050565b600082825260208201905092915050565b60005b8381101561235857808201518184015260208101905061233d565b60008484015250505050565b6000601f19601f8301169050919050565b60006123808261231e565b61238a8185612329565b935061239a81856020860161233a565b6123a381612364565b840191505092915050565b60006080820190506123c36000830187612135565b6123d0602083018661230f565b81810360408301526123e28185612375565b90506123f160608301846121b8565b95945050505050565b61240381612302565b811461240e57600080fd5b50565b600081359050612420816123fa565b92915050565b6000806040838503121561243d5761243c612096565b5b600061244b858286016120c1565b925050602061245c85828601612411565b9150509250929050565b60008115159050919050565b61247b81612466565b82525050565b60006020820190506124966000830184612472565b92915050565b600080fd5b600080fd5b600080fd5b60008083601f8401126124c1576124c061249c565b5b8235905067ffffffffffffffff8111156124de576124dd6124a1565b5b6020830191508360018202830111156124fa576124f96124a6565b5b9250929050565b6000806000806060858703121561251b5761251a612096565b5b600061252987828801612176565b945050602061253a87828801612411565b935050604085013567ffffffffffffffff81111561255b5761255a61209b565b5b612567878288016124ab565b925092505092959194509250565b600060c08201905061258a600083018961230f565b612597602083018861230f565b81810360408301526125a98187612375565b90506125b860608301866121b8565b6125c560808301856121b8565b6125d260a0830184612472565b979650505050505050565b60006020820190506125f2600083018461230f565b92915050565b7f4f6e6c79206f776e657200000000000000000000000000000000000000000000600082015250565b600061262e600a83612329565b9150612639826125f8565b602082019050919050565b6000602082019050818103600083015261265d81612621565b9050919050565b7f4e487b7100000000000000000000000000000000000000000000000000000000600052603260045260246000fd5b7f4e487b7100000000000000000000000000000000000000000000000000000000600052601160045260246000fd5b60006126cd826120a0565b91507fffffffffffffffffffffffffffffffffffffffffffffffffffffffffffffffff82036126ff576126fe612693565b5b600182019050919050565b7f696e646578204f4f420000000000000000000000000000000000000000000000600082015250565b6000612740600983612329565b915061274b8261270a565b602082019050919050565b6000602082019050818103600083015261276f81612733565b9050919050565b7f4e487b7100000000000000000000000000000000000000000000000000000000600052602260045260246000fd5b600060028204905060018216806127bd57607f821691505b6020821081036127d0576127cf612776565b5b50919050565b7f6d696e207375626d697373696f6e73203e3d3100000000000000000000000000600082015250565b600061280c601383612329565b9150612817826127d6565b602082019050919050565b6000602082019050818103600083015261283b816127ff565b9050919050565b7f71756f72756d20312e2e31303000000000000000000000000000000000000000600082015250565b6000612878600d83612329565b915061288382612842565b602082019050919050565b600060208201905081810360008301526128a78161286b565b9050919050565b7f4f6e6c792077686974656c6973746564206f7261636c65000000000000000000600082015250565b60006128e4601783612329565b91506128ef826128ae565b602082019050919050565b60006020820190508181036000830152612913816128d7565b9050919050565b7f696e76616c696420746172676574000000000000000000000000000000000000600082015250565b6000612950600e83612329565b915061295b8261291a565b602082019050919050565b6000602082019050818103600083015261297f81612943565b9050919050565b7f73636f726520302e2e3130300000000000000000000000000000000000000000600082015250565b60006129bc600c83612329565b91506129c782612986565b602082019050919050565b600060208201905081810360008301526129eb816129af565b9050919050565b7f66696e616c697a65640000000000000000000000000000000000000000000000600082015250565b6000612a28600983612329565b9150612a33826129f2565b602082019050919050565b60006020820190508181036000830152612a5781612a1b565b9050919050565b7f616c7265616479207375626d6974746564000000000000000000000000000000600082015250565b6000612a94601183612329565b9150612a9f82612a5e565b602082019050919050565b60006020820190508181036000830152612ac381612a87565b9050919050565b7f4e487b7100000000000000000000000000000000000000000000000000000000600052604160045260246000fd5b60008190508160005260206000209050919050565b60006020601f8301049050919050565b600082821b905092915050565b600060088302612b5b7fffffffffffffffffffffffffffffffffffffffffffffffffffffffffffffffff82612b1e565b612b658683612b1e565b95508019841693508086168417925050509392505050565b6000819050919050565b6000612ba2612b9d612b98846120a0565b612b7d565b6120a0565b9050919050565b6000819050919050565b612bbc83612b87565b612bd0612bc882612ba9565b848454612b2b565b825550505050565b600090565b612be5612bd8565b612bf0818484612bb3565b505050565b5b81811015612c1457612c09600082612bdd565b600181019050612bf6565b5050565b601f821115612c5957612c2a81612af9565b612c3384612b0e565b81016020851015612c42578190505b612c56612c4e85612b0e565b830182612bf5565b50505b505050565b600082821c905092915050565b6000612c7c60001984600802612c5e565b1980831691505092915050565b6000612c958383612c6b565b9150826002028217905092915050565b612cae8261231e565b67ffffffffffffffff811115612cc757612cc6612aca565b5b612cd182546127a5565b612cdc828285612c18565b600060209050601f831160018114612d0f5760008415612cfd578287015190505b612d078582612c89565b865550612d6f565b601f198416612d1d86612af9565b60005b82811015612d4557848901518255600182019150602085019450602081019050612d20565b86831015612d625784890151612d5e601f891682612c6b565b8355505b6001600288020188555050505b505050505050565b82818337600083830152505050565b6000612d928385612329565b9350612d9f838584612d77565b612da883612364565b840190509392505050565b6000604082019050612dc8600083018661230f565b8181036020830152612ddb818486612d86565b9050949350505050565b7f7a65726f20616464726573730000000000000000000000000000000000000000600082015250565b6000612e1b600c83612329565b9150612e2682612de5565b602082019050919050565b60006020820190508181036000830152612e4a81612e0e565b9050919050565b7f616c7265616479206f7261636c65000000000000000000000000000000000000600082015250565b6000612e87600e83612329565b9150612e9282612e51565b602082019050919050565b60006020820190508181036000830152612eb681612e7a565b9050919050565b7f7a65726f00000000000000000000000000000000000000000000000000000000600082015250565b6000612ef3600483612329565b9150612efe82612ebd565b602082019050919050565b60006020820190508181036000830152612f2281612ee6565b9050919050565b7f6e6f74206f7261636c6500000000000000000000000000000000000000000000600082015250565b6000612f5f600a83612329565b9150612f6a82612f29565b602082019050919050565b60006020820190508181036000830152612f8e81612f52565b9050919050565b6000612fa0826120a0565b9150612fab836120a0565b9250828203905081811115612fc357612fc2612693565b5b92915050565b7f4e487b7100000000000000000000000000000000000000000000000000000000600052603160045260246000fd5b6000613003826120a0565b915061300e836120a0565b925082820190508082111561302657613025612693565b5b92915050565b600061303782612302565b915060ff820361304a57613049612693565b5b600182019050919050565b6000613060826120a0565b915061306b836120a0565b9250828202613079816120a0565b915082820484148315176130905761308f612693565b5b5092915050565b7f4e487b7100000000000000000000000000000000000000000000000000000000600052601260045260246000fd5b60006130d1826120a0565b91506130dc836120a0565b9250826130ec576130eb613097565b5b828204905092915050565b600060a08201905061310c600083018861230f565b613119602083018761230f565b818103604083015261312b8186612375565b905061313a60608301856121b8565b61314760808301846121b8565b969550505050505056fea2646970667358221220684110f16dfb2c944d1f5d234aca36ba50d51f6849f413a53645286193b3009e64736f6c63430008140033",
  "linkReferences": {},
  "deployedLinkReferences": {}
}